{
  "_format": "hh-sol-artifact-1",
  "contractName": "TRC721NFT",
  "sourceName": "contracts/TelegramNFT.sol",
  "abi": [
    {
      "inputs": [
        {
          "internalType": "string",
          "name": "name",
          "type": "string"
        },
        {
          "internalType": "string",
          "name": "symbol",
          "type": "string"
        }
      ],
      "stateMutability": "nonpayable",
      "type": "constructor"
    },
    {
      "inputs": [],
      "name": "ERC721EnumerableForbiddenBatchMint",
      "type": "error"
    },
    {
      "inputs": [
        {
          "internalType": "address",
          "name": "sender",
          "type": "address"
        },
        {
          "internalType": "uint256",
          "name": "tokenId",
          "type": "uint256"
        },
        {
          "internalType": "address",
          "name": "owner",
          "type": "address"
        }
      ],
      "name": "ERC721IncorrectOwner",
      "type": "error"
    },
    {
      "inputs": [
        {
          "internalType": "address",
          "name": "operator",
          "type": "address"
        },
        {
          "internalType": "uint256",
          "name": "tokenId",
          "type": "uint256"
        }
      ],
      "name": "ERC721InsufficientApproval",
      "type": "error"
    },
    {
      "inputs": [
        {
          "internalType": "address",
          "name": "approver",
          "type": "address"
        }
      ],
      "name": "ERC721InvalidApprover",
      "type": "error"
    },
    {
      "inputs": [
        {
          "internalType": "address",
          "name": "operator",
          "type": "address"
        }
      ],
      "name": "ERC721InvalidOperator",
      "type": "error"
    },
    {
      "inputs": [
        {
          "internalType": "address",
          "name": "owner",
          "type": "address"
        }
      ],
      "name": "ERC721InvalidOwner",
      "type": "error"
    },
    {
      "inputs": [
        {
          "internalType": "address",
          "name": "receiver",
          "type": "address"
        }
      ],
      "name": "ERC721InvalidReceiver",
      "type": "error"
    },
    {
      "inputs": [
        {
          "internalType": "address",
          "name": "sender",
          "type": "address"
        }
      ],
      "name": "ERC721InvalidSender",
      "type": "error"
    },
    {
      "inputs": [
        {
          "internalType": "uint256",
          "name": "tokenId",
          "type": "uint256"
        }
      ],
      "name": "ERC721NonexistentToken",
      "type": "error"
    },
    {
      "inputs": [
        {
          "internalType": "address",
          "name": "owner",
          "type": "address"
        },
        {
          "internalType": "uint256",
          "name": "index",
          "type": "uint256"
        }
      ],
      "name": "ERC721OutOfBoundsIndex",
      "type": "error"
    },
    {
      "anonymous": false,
      "inputs": [
        {
          "indexed": true,
          "internalType": "address",
          "name": "owner",
          "type": "address"
        },
        {
          "indexed": true,
          "internalType": "address",
          "name": "approved",
          "type": "address"
        },
        {
          "indexed": true,
          "internalType": "uint256",
          "name": "tokenId",
          "type": "uint256"
        }
      ],
      "name": "Approval",
      "type": "event"
    },
    {
      "anonymous": false,
      "inputs": [
        {
          "indexed": true,
          "internalType": "address",
          "name": "owner",
          "type": "address"
        },
        {
          "indexed": true,
          "internalType": "address",
          "name": "operator",
          "type": "address"
        },
        {
          "indexed": false,
          "internalType": "bool",
          "name": "approved",
          "type": "bool"
        }
      ],
      "name": "ApprovalForAll",
      "type": "event"
    },
    {
      "anonymous": false,
      "inputs": [
        {
          "indexed": true,
          "internalType": "address",
          "name": "from",
          "type": "address"
        },
        {
          "indexed": true,
          "internalType": "address",
          "name": "to",
          "type": "address"
        },
        {
          "indexed": true,
          "internalType": "uint256",
          "name": "tokenId",
          "type": "uint256"
        }
      ],
      "name": "Transfer",
      "type": "event"
    },
    {
      "inputs": [
        {
          "internalType": "address",
          "name": "to",
          "type": "address"
        },
        {
          "internalType": "uint256",
          "name": "tokenId",
          "type": "uint256"
        }
      ],
      "name": "approve",
      "outputs": [],
      "stateMutability": "nonpayable",
      "type": "function"
    },
    {
      "inputs": [
        {
          "internalType": "address",
          "name": "owner",
          "type": "address"
        }
      ],
      "name": "balanceOf",
      "outputs": [
        {
          "internalType": "uint256",
          "name": "",
          "type": "uint256"
        }
      ],
      "stateMutability": "view",
      "type": "function"
    },
    {
      "inputs": [
        {
          "internalType": "uint256",
          "name": "tokenId",
          "type": "uint256"
        }
      ],
      "name": "getApproved",
      "outputs": [
        {
          "internalType": "address",
          "name": "",
          "type": "address"
        }
      ],
      "stateMutability": "view",
      "type": "function"
    },
    {
      "inputs": [
        {
          "internalType": "address",
          "name": "owner",
          "type": "address"
        },
        {
          "internalType": "address",
          "name": "operator",
          "type": "address"
        }
      ],
      "name": "isApprovedForAll",
      "outputs": [
        {
          "internalType": "bool",
          "name": "",
          "type": "bool"
        }
      ],
      "stateMutability": "view",
      "type": "function"
    },
    {
      "inputs": [
        {
          "internalType": "address",
          "name": "recipient",
          "type": "address"
        },
        {
          "internalType": "string",
          "name": "telegramAlias",
          "type": "string"
        }
      ],
      "name": "mintNFT",
      "outputs": [],
      "stateMutability": "nonpayable",
      "type": "function"
    },
    {
      "inputs": [],
      "name": "name",
      "outputs": [
        {
          "internalType": "string",
          "name": "",
          "type": "string"
        }
      ],
      "stateMutability": "view",
      "type": "function"
    },
    {
      "inputs": [
        {
          "internalType": "uint256",
          "name": "tokenId",
          "type": "uint256"
        }
      ],
      "name": "ownerOf",
      "outputs": [
        {
          "internalType": "address",
          "name": "",
          "type": "address"
        }
      ],
      "stateMutability": "view",
      "type": "function"
    },
    {
      "inputs": [
        {
          "internalType": "address",
          "name": "from",
          "type": "address"
        },
        {
          "internalType": "address",
          "name": "to",
          "type": "address"
        },
        {
          "internalType": "uint256",
          "name": "tokenId",
          "type": "uint256"
        }
      ],
      "name": "safeTransferFrom",
      "outputs": [],
      "stateMutability": "nonpayable",
      "type": "function"
    },
    {
      "inputs": [
        {
          "internalType": "address",
          "name": "from",
          "type": "address"
        },
        {
          "internalType": "address",
          "name": "to",
          "type": "address"
        },
        {
          "internalType": "uint256",
          "name": "tokenId",
          "type": "uint256"
        },
        {
          "internalType": "bytes",
          "name": "data",
          "type": "bytes"
        }
      ],
      "name": "safeTransferFrom",
      "outputs": [],
      "stateMutability": "nonpayable",
      "type": "function"
    },
    {
      "inputs": [
        {
          "internalType": "address",
          "name": "operator",
          "type": "address"
        },
        {
          "internalType": "bool",
          "name": "approved",
          "type": "bool"
        }
      ],
      "name": "setApprovalForAll",
      "outputs": [],
      "stateMutability": "nonpayable",
      "type": "function"
    },
    {
      "inputs": [
        {
          "internalType": "bytes4",
          "name": "interfaceId",
          "type": "bytes4"
        }
      ],
      "name": "supportsInterface",
      "outputs": [
        {
          "internalType": "bool",
          "name": "",
          "type": "bool"
        }
      ],
      "stateMutability": "view",
      "type": "function"
    },
    {
      "inputs": [],
      "name": "symbol",
      "outputs": [
        {
          "internalType": "string",
          "name": "",
          "type": "string"
        }
      ],
      "stateMutability": "view",
      "type": "function"
    },
    {
      "inputs": [
        {
          "internalType": "uint256",
          "name": "index",
          "type": "uint256"
        }
      ],
      "name": "tokenByIndex",
      "outputs": [
        {
          "internalType": "uint256",
          "name": "",
          "type": "uint256"
        }
      ],
      "stateMutability": "view",
      "type": "function"
    },
    {
      "inputs": [
        {
          "internalType": "address",
          "name": "owner",
          "type": "address"
        },
        {
          "internalType": "uint256",
          "name": "index",
          "type": "uint256"
        }
      ],
      "name": "tokenOfOwnerByIndex",
      "outputs": [
        {
          "internalType": "uint256",
          "name": "",
          "type": "uint256"
        }
      ],
      "stateMutability": "view",
      "type": "function"
    },
    {
      "inputs": [
        {
          "internalType": "uint256",
          "name": "tokenId",
          "type": "uint256"
        }
      ],
      "name": "tokenURI",
      "outputs": [
        {
          "internalType": "string",
          "name": "",
          "type": "string"
        }
      ],
      "stateMutability": "view",
      "type": "function"
    },
    {
      "inputs": [],
      "name": "totalSupply",
      "outputs": [
        {
          "internalType": "uint256",
          "name": "",
          "type": "uint256"
        }
      ],
      "stateMutability": "view",
      "type": "function"
    },
    {
      "inputs": [
        {
          "internalType": "address",
          "name": "from",
          "type": "address"
        },
        {
          "internalType": "address",
          "name": "to",
          "type": "address"
        },
        {
          "internalType": "uint256",
          "name": "tokenId",
          "type": "uint256"
        }
      ],
      "name": "transferFrom",
      "outputs": [],
      "stateMutability": "nonpayable",
      "type": "function"
    },
    {
      "inputs": [
        {
          "internalType": "address",
          "name": "owner",
          "type": "address"
        },
        {
          "internalType": "string",
          "name": "newTelegramAlias",
          "type": "string"
        }
      ],
      "name": "updateTelegramAlias",
      "outputs": [],
      "stateMutability": "nonpayable",
      "type": "function"
    },
    {
      "inputs": [
        {
          "internalType": "string",
          "name": "telegramAlias",
          "type": "string"
        }
      ],
      "name": "verifyOwnership",
      "outputs": [
        {
          "internalType": "bool",
          "name": "",
          "type": "bool"
        }
      ],
      "stateMutability": "view",
      "type": "function"
    }
  ],
  "bytecode": "0x60806040523480156200001157600080fd5b50604051620033f2380380620033f28339818101604052810190620000379190620001fa565b818181600090816200004a9190620004ca565b5080600190816200005c9190620004ca565b5050505050620005b1565b6000604051905090565b600080fd5b600080fd5b600080fd5b600080fd5b6000601f19601f8301169050919050565b7f4e487b7100000000000000000000000000000000000000000000000000000000600052604160045260246000fd5b620000d08262000085565b810181811067ffffffffffffffff82111715620000f257620000f162000096565b5b80604052505050565b60006200010762000067565b9050620001158282620000c5565b919050565b600067ffffffffffffffff82111562000138576200013762000096565b5b620001438262000085565b9050602081019050919050565b60005b838110156200017057808201518184015260208101905062000153565b60008484015250505050565b6000620001936200018d846200011a565b620000fb565b905082815260208101848484011115620001b257620001b162000080565b5b620001bf84828562000150565b509392505050565b600082601f830112620001df57620001de6200007b565b5b8151620001f18482602086016200017c565b91505092915050565b6000806040838503121562000214576200021362000071565b5b600083015167ffffffffffffffff81111562000235576200023462000076565b5b6200024385828601620001c7565b925050602083015167ffffffffffffffff81111562000267576200026662000076565b5b6200027585828601620001c7565b9150509250929050565b600081519050919050565b7f4e487b7100000000000000000000000000000000000000000000000000000000600052602260045260246000fd5b60006002820490506001821680620002d257607f821691505b602082108103620002e857620002e76200028a565b5b50919050565b60008190508160005260206000209050919050565b60006020601f8301049050919050565b600082821b905092915050565b600060088302620003527fffffffffffffffffffffffffffffffffffffffffffffffffffffffffffffffff8262000313565b6200035e868362000313565b95508019841693508086168417925050509392505050565b6000819050919050565b6000819050919050565b6000620003ab620003a56200039f8462000376565b62000380565b62000376565b9050919050565b6000819050919050565b620003c7836200038a565b620003df620003d682620003b2565b84845462000320565b825550505050565b600090565b620003f6620003e7565b62000403818484620003bc565b505050565b5b818110156200042b576200041f600082620003ec565b60018101905062000409565b5050565b601f8211156200047a576200044481620002ee565b6200044f8462000303565b810160208510156200045f578190505b620004776200046e8562000303565b83018262000408565b50505b505050565b600082821c905092915050565b60006200049f600019846008026200047f565b1980831691505092915050565b6000620004ba83836200048c565b9150826002028217905092915050565b620004d5826200027f565b67ffffffffffffffff811115620004f157620004f062000096565b5b620004fd8254620002b9565b6200050a8282856200042f565b600060209050601f8311600181146200054257600084156200052d578287015190505b620005398582620004ac565b865550620005a9565b601f1984166200055286620002ee565b60005b828110156200057c5784890151825560018201915060208501945060208101905062000555565b868310156200059c578489015162000598601f8916826200048c565b8355505b6001600288020188555050505b505050505050565b612e3180620005c16000396000f3fe608060405234801561001057600080fd5b50600436106101215760003560e01c80634f6ccce7116100ad578063a22cb46511610071578063a22cb46514610340578063b88d4fde1461035c578063c87b56dd14610378578063e985e9c5146103a8578063eacabe14146103d857610121565b80634f6ccce7146102765780636352211e146102a657806370a08231146102d657806392e1036d1461030657806395d89b411461032257610121565b806318160ddd116100f457806318160ddd146101c057806323b872dd146101de578063293f854e146101fa5780632f745c591461022a57806342842e0e1461025a57610121565b806301ffc9a71461012657806306fdde0314610156578063081812fc14610174578063095ea7b3146101a4575b600080fd5b610140600480360381019061013b9190611f8d565b6103f4565b60405161014d9190611fd5565b60405180910390f35b61015e61046e565b60405161016b9190612080565b60405180910390f35b61018e600480360381019061018991906120d8565b610500565b60405161019b9190612146565b60405180910390f35b6101be60048036038101906101b9919061218d565b61051c565b005b6101c8610532565b6040516101d591906121dc565b60405180910390f35b6101f860048036038101906101f391906121f7565b61053f565b005b610214600480360381019061020f919061237f565b610641565b6040516102219190611fd5565b60405180910390f35b610244600480360381019061023f919061218d565b61066b565b60405161025191906121dc565b60405180910390f35b610274600480360381019061026f91906121f7565b610714565b005b610290600480360381019061028b91906120d8565b610734565b60405161029d91906121dc565b60405180910390f35b6102c060048036038101906102bb91906120d8565b6107aa565b6040516102cd9190612146565b60405180910390f35b6102f060048036038101906102eb91906123c8565b6107bc565b6040516102fd91906121dc565b60405180910390f35b610320600480360381019061031b91906123f5565b610876565b005b61032a610990565b6040516103379190612080565b60405180910390f35b61035a6004803603810190610355919061247d565b610a22565b005b6103766004803603810190610371919061255e565b610a38565b005b610392600480360381019061038d91906120d8565b610a55565b60405161039f9190612080565b60405180910390f35b6103c260048036038101906103bd91906125e1565b610abe565b6040516103cf9190611fd5565b60405180910390f35b6103f260048036038101906103ed91906123f5565b610b52565b005b60007f780e9d63000000000000000000000000000000000000000000000000000000007bffffffffffffffffffffffffffffffffffffffffffffffffffffffff1916827bffffffffffffffffffffffffffffffffffffffffffffffffffffffff19161480610467575061046682610bbb565b5b9050919050565b60606000805461047d90612650565b80601f01602080910402602001604051908101604052809291908181526020018280546104a990612650565b80156104f65780601f106104cb576101008083540402835291602001916104f6565b820191906000526020600020905b8154815290600101906020018083116104d957829003601f168201915b5050505050905090565b600061050b82610c9d565b5061051582610d25565b9050919050565b61052e8282610529610d62565b610d6a565b5050565b6000600880549050905090565b600073ffffffffffffffffffffffffffffffffffffffff168273ffffffffffffffffffffffffffffffffffffffff16036105b15760006040517f64a0ae920000000000000000000000000000000000000000000000000000000081526004016105a89190612146565b60405180910390fd5b60006105c583836105c0610d62565b610d7c565b90508373ffffffffffffffffffffffffffffffffffffffff168173ffffffffffffffffffffffffffffffffffffffff161461063b578382826040517f64283d7b00000000000000000000000000000000000000000000000000000000815260040161063293929190612681565b60405180910390fd5b50505050565b600080600b8360405161065491906126f4565b908152602001604051809103902054119050919050565b6000610676836107bc565b82106106bb5782826040517fa57d13dc0000000000000000000000000000000000000000000000000000000081526004016106b292919061270b565b60405180910390fd5b600660008473ffffffffffffffffffffffffffffffffffffffff1673ffffffffffffffffffffffffffffffffffffffff168152602001908152602001600020600083815260200190815260200160002054905092915050565b61072f83838360405180602001604052806000815250610a38565b505050565b600061073e610532565b8210610784576000826040517fa57d13dc00000000000000000000000000000000000000000000000000000000815260040161077b92919061270b565b60405180910390fd5b6008828154811061079857610797612734565b5b90600052602060002001549050919050565b60006107b582610c9d565b9050919050565b60008073ffffffffffffffffffffffffffffffffffffffff168273ffffffffffffffffffffffffffffffffffffffff160361082f5760006040517f89c62b640000000000000000000000000000000000000000000000000000000081526004016108269190612146565b60405180910390fd5b600360008373ffffffffffffffffffffffffffffffffffffffff1673ffffffffffffffffffffffffffffffffffffffff168152602001908152602001600020549050919050565b60008151116108ba576040517f08c379a00000000000000000000000000000000000000000000000000000000081526004016108b1906127d5565b60405180910390fd5b6000806108c684610e99565b915091508161090a576040517f08c379a000000000000000000000000000000000000000000000000000000000815260040161090190612841565b60405180910390fd5b3373ffffffffffffffffffffffffffffffffffffffff1661092a826107aa565b73ffffffffffffffffffffffffffffffffffffffff1614610980576040517f08c379a0000000000000000000000000000000000000000000000000000000008152600401610977906128ad565b60405180910390fd5b61098a8184610f1c565b50505050565b60606001805461099f90612650565b80601f01602080910402602001604051908101604052809291908181526020018280546109cb90612650565b8015610a185780601f106109ed57610100808354040283529160200191610a18565b820191906000526020600020905b8154815290600101906020018083116109fb57829003601f168201915b5050505050905090565b610a34610a2d610d62565b8383610f64565b5050565b610a4384848461053f565b610a4f848484846110d3565b50505050565b6060610a6082610c9d565b506000610a6b61128a565b90506000815111610a8b5760405180602001604052806000815250610ab6565b80610a95846112a1565b604051602001610aa69291906128cd565b6040516020818303038152906040525b915050919050565b6000600560008473ffffffffffffffffffffffffffffffffffffffff1673ffffffffffffffffffffffffffffffffffffffff16815260200190815260200160002060008373ffffffffffffffffffffffffffffffffffffffff1673ffffffffffffffffffffffffffffffffffffffff16815260200190815260200160002060009054906101000a900460ff16905092915050565b6000815111610b96576040517f08c379a0000000000000000000000000000000000000000000000000000000008152600401610b8d9061293d565b60405180910390fd5b6000610ba061136f565b9050610bac838261138a565b610bb68183610f1c565b505050565b60007f80ac58cd000000000000000000000000000000000000000000000000000000007bffffffffffffffffffffffffffffffffffffffffffffffffffffffff1916827bffffffffffffffffffffffffffffffffffffffffffffffffffffffff19161480610c8657507f5b5e139f000000000000000000000000000000000000000000000000000000007bffffffffffffffffffffffffffffffffffffffffffffffffffffffff1916827bffffffffffffffffffffffffffffffffffffffffffffffffffffffff1916145b80610c965750610c95826113a8565b5b9050919050565b600080610ca983611412565b9050600073ffffffffffffffffffffffffffffffffffffffff168173ffffffffffffffffffffffffffffffffffffffff1603610d1c57826040517f7e273289000000000000000000000000000000000000000000000000000000008152600401610d1391906121dc565b60405180910390fd5b80915050919050565b60006004600083815260200190815260200160002060009054906101000a900473ffffffffffffffffffffffffffffffffffffffff169050919050565b600033905090565b610d77838383600161144f565b505050565b600080610d8a858585611614565b9050600073ffffffffffffffffffffffffffffffffffffffff168173ffffffffffffffffffffffffffffffffffffffff1603610dce57610dc98461182e565b610e0d565b8473ffffffffffffffffffffffffffffffffffffffff168173ffffffffffffffffffffffffffffffffffffffff1614610e0c57610e0b8185611877565b5b5b600073ffffffffffffffffffffffffffffffffffffffff168573ffffffffffffffffffffffffffffffffffffffff1603610e4f57610e4a846119d8565b610e8e565b8473ffffffffffffffffffffffffffffffffffffffff168173ffffffffffffffffffffffffffffffffffffffff1614610e8d57610e8c8585611aa9565b5b5b809150509392505050565b6000806000610ea7846107bc565b905060005b81811015610f0d576000610ec0868361066b565b90506000600a60008381526020019081526020016000208054610ee290612650565b90501115610ef95760018194509450505050610f17565b508080610f059061298c565b915050610eac565b5060008092509250505b915091565b80600a60008481526020019081526020016000209081610f3c9190612b80565b5081600b82604051610f4e91906126f4565b9081526020016040518091039020819055505050565b600073ffffffffffffffffffffffffffffffffffffffff168273ffffffffffffffffffffffffffffffffffffffff1603610fd557816040517f5b08ba18000000000000000000000000000000000000000000000000000000008152600401610fcc9190612146565b60405180910390fd5b80600560008573ffffffffffffffffffffffffffffffffffffffff1673ffffffffffffffffffffffffffffffffffffffff16815260200190815260200160002060008473ffffffffffffffffffffffffffffffffffffffff1673ffffffffffffffffffffffffffffffffffffffff16815260200190815260200160002060006101000a81548160ff0219169083151502179055508173ffffffffffffffffffffffffffffffffffffffff168373ffffffffffffffffffffffffffffffffffffffff167f17307eab39ab6107e8899845ad3d59bd9653f200f220920489ca2b5937696c31836040516110c69190611fd5565b60405180910390a3505050565b60008373ffffffffffffffffffffffffffffffffffffffff163b1115611284578273ffffffffffffffffffffffffffffffffffffffff1663150b7a02611117610d62565b8685856040518563ffffffff1660e01b81526004016111399493929190612ca7565b6020604051808303816000875af192505050801561117557506040513d601f19601f820116820180604052508101906111729190612d08565b60015b6111f9573d80600081146111a5576040519150601f19603f3d011682016040523d82523d6000602084013e6111aa565b606091505b5060008151036111f157836040517f64a0ae920000000000000000000000000000000000000000000000000000000081526004016111e89190612146565b60405180910390fd5b805181602001fd5b63150b7a0260e01b7bffffffffffffffffffffffffffffffffffffffffffffffffffffffff1916817bffffffffffffffffffffffffffffffffffffffffffffffffffffffff19161461128257836040517f64a0ae920000000000000000000000000000000000000000000000000000000081526004016112799190612146565b60405180910390fd5b505b50505050565b606060405180602001604052806000815250905090565b6060600060016112b084611b34565b01905060008167ffffffffffffffff8111156112cf576112ce612254565b5b6040519080825280601f01601f1916602001820160405280156113015781602001600182028036833780820191505090505b509050600082602001820190505b600115611364578080600190039150507f3031323334353637383961626364656600000000000000000000000000000000600a86061a8153600a858161135857611357612d35565b5b0494506000850361130f575b819350505050919050565b6000600161137b610532565b6113859190612d64565b905090565b6113a4828260405180602001604052806000815250611c87565b5050565b60007f01ffc9a7000000000000000000000000000000000000000000000000000000007bffffffffffffffffffffffffffffffffffffffffffffffffffffffff1916827bffffffffffffffffffffffffffffffffffffffffffffffffffffffff1916149050919050565b60006002600083815260200190815260200160002060009054906101000a900473ffffffffffffffffffffffffffffffffffffffff169050919050565b80806114885750600073ffffffffffffffffffffffffffffffffffffffff168273ffffffffffffffffffffffffffffffffffffffff1614155b156115bc57600061149884610c9d565b9050600073ffffffffffffffffffffffffffffffffffffffff168373ffffffffffffffffffffffffffffffffffffffff161415801561150357508273ffffffffffffffffffffffffffffffffffffffff168173ffffffffffffffffffffffffffffffffffffffff1614155b801561151657506115148184610abe565b155b1561155857826040517fa9fbf51f00000000000000000000000000000000000000000000000000000000815260040161154f9190612146565b60405180910390fd5b81156115ba57838573ffffffffffffffffffffffffffffffffffffffff168273ffffffffffffffffffffffffffffffffffffffff167f8c5be1e5ebec7d5bd14f71427d1e84f3dd0314c0f7b2291e5b200ac8c7c3b92560405160405180910390a45b505b836004600085815260200190815260200160002060006101000a81548173ffffffffffffffffffffffffffffffffffffffff021916908373ffffffffffffffffffffffffffffffffffffffff16021790555050505050565b60008061162084611412565b9050600073ffffffffffffffffffffffffffffffffffffffff168373ffffffffffffffffffffffffffffffffffffffff161461166257611661818486611ca3565b5b600073ffffffffffffffffffffffffffffffffffffffff168173ffffffffffffffffffffffffffffffffffffffff16146116f3576116a460008560008061144f565b6001600360008373ffffffffffffffffffffffffffffffffffffffff1673ffffffffffffffffffffffffffffffffffffffff168152602001908152602001600020600082825403925050819055505b600073ffffffffffffffffffffffffffffffffffffffff168573ffffffffffffffffffffffffffffffffffffffff1614611776576001600360008773ffffffffffffffffffffffffffffffffffffffff1673ffffffffffffffffffffffffffffffffffffffff168152602001908152602001600020600082825401925050819055505b846002600086815260200190815260200160002060006101000a81548173ffffffffffffffffffffffffffffffffffffffff021916908373ffffffffffffffffffffffffffffffffffffffff160217905550838573ffffffffffffffffffffffffffffffffffffffff168273ffffffffffffffffffffffffffffffffffffffff167fddf252ad1be2c89b69c2b068fc378daa952ba7f163c4a11628f55a4df523b3ef60405160405180910390a4809150509392505050565b6008805490506009600083815260200190815260200160002081905550600881908060018154018082558091505060019003906000526020600020016000909190919091505550565b6000611882836107bc565b9050600060076000848152602001908152602001600020549050818114611967576000600660008673ffffffffffffffffffffffffffffffffffffffff1673ffffffffffffffffffffffffffffffffffffffff168152602001908152602001600020600084815260200190815260200160002054905080600660008773ffffffffffffffffffffffffffffffffffffffff1673ffffffffffffffffffffffffffffffffffffffff168152602001908152602001600020600084815260200190815260200160002081905550816007600083815260200190815260200160002081905550505b6007600084815260200190815260200160002060009055600660008573ffffffffffffffffffffffffffffffffffffffff1673ffffffffffffffffffffffffffffffffffffffff16815260200190815260200160002060008381526020019081526020016000206000905550505050565b600060016008805490506119ec9190612d98565b9050600060096000848152602001908152602001600020549050600060088381548110611a1c57611a1b612734565b5b906000526020600020015490508060088381548110611a3e57611a3d612734565b5b906000526020600020018190555081600960008381526020019081526020016000208190555060096000858152602001908152602001600020600090556008805480611a8d57611a8c612dcc565b5b6001900381819060005260206000200160009055905550505050565b60006001611ab6846107bc565b611ac09190612d98565b905081600660008573ffffffffffffffffffffffffffffffffffffffff1673ffffffffffffffffffffffffffffffffffffffff168152602001908152602001600020600083815260200190815260200160002081905550806007600084815260200190815260200160002081905550505050565b600080600090507a184f03e93ff9f4daa797ed6e38ed64bf6a1f0100000000000000008310611b92577a184f03e93ff9f4daa797ed6e38ed64bf6a1f0100000000000000008381611b8857611b87612d35565b5b0492506040810190505b6d04ee2d6d415b85acef81000000008310611bcf576d04ee2d6d415b85acef81000000008381611bc557611bc4612d35565b5b0492506020810190505b662386f26fc100008310611bfe57662386f26fc100008381611bf457611bf3612d35565b5b0492506010810190505b6305f5e1008310611c27576305f5e1008381611c1d57611c1c612d35565b5b0492506008810190505b6127108310611c4c576127108381611c4257611c41612d35565b5b0492506004810190505b60648310611c6f5760648381611c6557611c64612d35565b5b0492506002810190505b600a8310611c7e576001810190505b80915050919050565b611c918383611d67565b611c9e60008484846110d3565b505050565b611cae838383611e60565b611d6257600073ffffffffffffffffffffffffffffffffffffffff168373ffffffffffffffffffffffffffffffffffffffff1603611d2357806040517f7e273289000000000000000000000000000000000000000000000000000000008152600401611d1a91906121dc565b60405180910390fd5b81816040517f177e802f000000000000000000000000000000000000000000000000000000008152600401611d5992919061270b565b60405180910390fd5b505050565b600073ffffffffffffffffffffffffffffffffffffffff168273ffffffffffffffffffffffffffffffffffffffff1603611dd95760006040517f64a0ae92000000000000000000000000000000000000000000000000000000008152600401611dd09190612146565b60405180910390fd5b6000611de783836000610d7c565b9050600073ffffffffffffffffffffffffffffffffffffffff168173ffffffffffffffffffffffffffffffffffffffff1614611e5b5760006040517f73c6ac6e000000000000000000000000000000000000000000000000000000008152600401611e529190612146565b60405180910390fd5b505050565b60008073ffffffffffffffffffffffffffffffffffffffff168373ffffffffffffffffffffffffffffffffffffffff1614158015611f1857508273ffffffffffffffffffffffffffffffffffffffff168473ffffffffffffffffffffffffffffffffffffffff161480611ed95750611ed88484610abe565b5b80611f1757508273ffffffffffffffffffffffffffffffffffffffff16611eff83610d25565b73ffffffffffffffffffffffffffffffffffffffff16145b5b90509392505050565b6000604051905090565b600080fd5b600080fd5b60007fffffffff0000000000000000000000000000000000000000000000000000000082169050919050565b611f6a81611f35565b8114611f7557600080fd5b50565b600081359050611f8781611f61565b92915050565b600060208284031215611fa357611fa2611f2b565b5b6000611fb184828501611f78565b91505092915050565b60008115159050919050565b611fcf81611fba565b82525050565b6000602082019050611fea6000830184611fc6565b92915050565b600081519050919050565b600082825260208201905092915050565b60005b8381101561202a57808201518184015260208101905061200f565b60008484015250505050565b6000601f19601f8301169050919050565b600061205282611ff0565b61205c8185611ffb565b935061206c81856020860161200c565b61207581612036565b840191505092915050565b6000602082019050818103600083015261209a8184612047565b905092915050565b6000819050919050565b6120b5816120a2565b81146120c057600080fd5b50565b6000813590506120d2816120ac565b92915050565b6000602082840312156120ee576120ed611f2b565b5b60006120fc848285016120c3565b91505092915050565b600073ffffffffffffffffffffffffffffffffffffffff82169050919050565b600061213082612105565b9050919050565b61214081612125565b82525050565b600060208201905061215b6000830184612137565b92915050565b61216a81612125565b811461217557600080fd5b50565b60008135905061218781612161565b92915050565b600080604083850312156121a4576121a3611f2b565b5b60006121b285828601612178565b92505060206121c3858286016120c3565b9150509250929050565b6121d6816120a2565b82525050565b60006020820190506121f160008301846121cd565b92915050565b6000806000606084860312156122105761220f611f2b565b5b600061221e86828701612178565b935050602061222f86828701612178565b9250506040612240868287016120c3565b9150509250925092565b600080fd5b600080fd5b7f4e487b7100000000000000000000000000000000000000000000000000000000600052604160045260246000fd5b61228c82612036565b810181811067ffffffffffffffff821117156122ab576122aa612254565b5b80604052505050565b60006122be611f21565b90506122ca8282612283565b919050565b600067ffffffffffffffff8211156122ea576122e9612254565b5b6122f382612036565b9050602081019050919050565b82818337600083830152505050565b600061232261231d846122cf565b6122b4565b90508281526020810184848401111561233e5761233d61224f565b5b612349848285612300565b509392505050565b600082601f8301126123665761236561224a565b5b813561237684826020860161230f565b91505092915050565b60006020828403121561239557612394611f2b565b5b600082013567ffffffffffffffff8111156123b3576123b2611f30565b5b6123bf84828501612351565b91505092915050565b6000602082840312156123de576123dd611f2b565b5b60006123ec84828501612178565b91505092915050565b6000806040838503121561240c5761240b611f2b565b5b600061241a85828601612178565b925050602083013567ffffffffffffffff81111561243b5761243a611f30565b5b61244785828601612351565b9150509250929050565b61245a81611fba565b811461246557600080fd5b50565b60008135905061247781612451565b92915050565b6000806040838503121561249457612493611f2b565b5b60006124a285828601612178565b92505060206124b385828601612468565b9150509250929050565b600067ffffffffffffffff8211156124d8576124d7612254565b5b6124e182612036565b9050602081019050919050565b60006125016124fc846124bd565b6122b4565b90508281526020810184848401111561251d5761251c61224f565b5b612528848285612300565b509392505050565b600082601f8301126125455761254461224a565b5b81356125558482602086016124ee565b91505092915050565b6000806000806080858703121561257857612577611f2b565b5b600061258687828801612178565b945050602061259787828801612178565b93505060406125a8878288016120c3565b925050606085013567ffffffffffffffff8111156125c9576125c8611f30565b5b6125d587828801612530565b91505092959194509250565b600080604083850312156125f8576125f7611f2b565b5b600061260685828601612178565b925050602061261785828601612178565b9150509250929050565b7f4e487b7100000000000000000000000000000000000000000000000000000000600052602260045260246000fd5b6000600282049050600182168061266857607f821691505b60208210810361267b5761267a612621565b5b50919050565b60006060820190506126966000830186612137565b6126a360208301856121cd565b6126b06040830184612137565b949350505050565b600081905092915050565b60006126ce82611ff0565b6126d881856126b8565b93506126e881856020860161200c565b80840191505092915050565b600061270082846126c3565b915081905092915050565b60006040820190506127206000830185612137565b61272d60208301846121cd565b9392505050565b7f4e487b7100000000000000000000000000000000000000000000000000000000600052603260045260246000fd5b7f4e65772054656c656772616d20616c6961732063616e6e6f7420626520656d7060008201527f7479000000000000000000000000000000000000000000000000000000000000602082015250565b60006127bf602283611ffb565b91506127ca82612763565b604082019050919050565b600060208201905081810360008301526127ee816127b2565b9050919050565b7f4f776e657220646f6573206e6f74206f776e20616e79204e4654730000000000600082015250565b600061282b601b83611ffb565b9150612836826127f5565b602082019050919050565b6000602082019050818103600083015261285a8161281e565b9050919050565b7f4f6e6c79204e4654206f776e65722063616e2075706461746520616c69617300600082015250565b6000612897601f83611ffb565b91506128a282612861565b602082019050919050565b600060208201905081810360008301526128c68161288a565b9050919050565b60006128d982856126c3565b91506128e582846126c3565b91508190509392505050565b7f54656c656772616d20616c6961732063616e6e6f7420626520656d7074790000600082015250565b6000612927601e83611ffb565b9150612932826128f1565b602082019050919050565b600060208201905081810360008301526129568161291a565b9050919050565b7f4e487b7100000000000000000000000000000000000000000000000000000000600052601160045260246000fd5b6000612997826120a2565b91507fffffffffffffffffffffffffffffffffffffffffffffffffffffffffffffffff82036129c9576129c861295d565b5b600182019050919050565b60008190508160005260206000209050919050565b60006020601f8301049050919050565b600082821b905092915050565b600060088302612a367fffffffffffffffffffffffffffffffffffffffffffffffffffffffffffffffff826129f9565b612a4086836129f9565b95508019841693508086168417925050509392505050565b6000819050919050565b6000612a7d612a78612a73846120a2565b612a58565b6120a2565b9050919050565b6000819050919050565b612a9783612a62565b612aab612aa382612a84565b848454612a06565b825550505050565b600090565b612ac0612ab3565b612acb818484612a8e565b505050565b5b81811015612aef57612ae4600082612ab8565b600181019050612ad1565b5050565b601f821115612b3457612b05816129d4565b612b0e846129e9565b81016020851015612b1d578190505b612b31612b29856129e9565b830182612ad0565b50505b505050565b600082821c905092915050565b6000612b5760001984600802612b39565b1980831691505092915050565b6000612b708383612b46565b9150826002028217905092915050565b612b8982611ff0565b67ffffffffffffffff811115612ba257612ba1612254565b5b612bac8254612650565b612bb7828285612af3565b600060209050601f831160018114612bea5760008415612bd8578287015190505b612be28582612b64565b865550612c4a565b601f198416612bf8866129d4565b60005b82811015612c2057848901518255600182019150602085019450602081019050612bfb565b86831015612c3d5784890151612c39601f891682612b46565b8355505b6001600288020188555050505b505050505050565b600081519050919050565b600082825260208201905092915050565b6000612c7982612c52565b612c838185612c5d565b9350612c9381856020860161200c565b612c9c81612036565b840191505092915050565b6000608082019050612cbc6000830187612137565b612cc96020830186612137565b612cd660408301856121cd565b8181036060830152612ce88184612c6e565b905095945050505050565b600081519050612d0281611f61565b92915050565b600060208284031215612d1e57612d1d611f2b565b5b6000612d2c84828501612cf3565b91505092915050565b7f4e487b7100000000000000000000000000000000000000000000000000000000600052601260045260246000fd5b6000612d6f826120a2565b9150612d7a836120a2565b9250828201905080821115612d9257612d9161295d565b5b92915050565b6000612da3826120a2565b9150612dae836120a2565b9250828203905081811115612dc657612dc561295d565b5b92915050565b7f4e487b7100000000000000000000000000000000000000000000000000000000600052603160045260246000fdfea264697066735822122037b006f3332ac8f0cce91323f934569c05533a6247c748255b949afd34e0950664736f6c63430008140033",
  "linkReferences": {},
  "deployedLinkReferences": {}
}